:100000000C9489010C94A8010C94A8010C94A801EB
:100010000C94A8010C94A8010C94A8010C94A801BC
:100020000C94A8010C94A8010C94A8010C94A801AC
:100030000C94A8010C9418060C94A8010C94A80127
:100040000C94A8010C94A8010C94A8010C94A8018C
:100050000C94A8010C94A8010C94A8010C94A8017C
:100060000C94A8010C94A8010C94A8010C94A8016C
:100070000C94A8010C94A8010C94A8010C94A8015C
:100080000C94A8010C94A8010C94A801A302AD0241
:100090008F029902DF02DF02B702C102CB02D50252
:1000A0000B141A1429143A148B148B144B145A146D
:1000B00069147A1400002100240027002A0000009F
:1000C0002200250028002B0000002000230026002D
:1000D00029000202020202020202040404040404CF
:1000E00004040303030303030303010101010101EA
:1000F00001010102040810204080010204081020C0
:100100004080010204081020408080402010080434
:100110000201000000010200090A000000000403BF
:1001200008070000000000000000000000000000C0
:100130000000000000000000005F00000007000752
:1001400000147F147F14242A7F2A12231308646268
:1001500036495522500005030000001C22410000D2
:1001600041221C0014083E081408083E08080050EC
:10017000300000080808080800606000002010082F
:1001800004023E5149453E00427F400042615149D0
:10019000462141454B311814127F102745454539FA
:1001A0003C4A494930017109050336494949360637
:1001B0004949291E00363600000056360000081452
:1001C0002241001414141414004122140802015195
:1001D0000906324979413E7E1111117E7F49494914
:1001E000363E414141227F4141221C7F49494941DC
:1001F0007F090909013E4149497A7F0808087F00C3
:10020000417F41002040413F017F081422417F404F
:100210004040407F020C027F7F0408107F3E414136
:10022000413E7F090909063E4151215E7F09192996
:1002300046464949493101017F01013F4040403F65
:100240001F2040201F3F4038403F631408146307BD
:10025000087008076151494543007F41410002048D
:100260000810200041417F00040201020440404088
:100270004040000102040020545454787F48444414
:10028000383844444420384444487F38545454183F
:10029000087E0901020C5252523E7F080404780085
:1002A000447D40002040443D007F10284400004130
:1002B0007F40007C041804787C08040478384444A7
:1002C00044387C14141408081414187C7C080404A2
:1002D000084854545420043F4440203C4040207C73
:1002E0001C2040201C3C4030403C44281028440C3A
:1002F0005050503C4464544C4400083641000000C7
:100300007F000000413608001008081008784641B8
:10031000467811241FBECFEFD0E4DEBFCDBF13E07F
:10032000A0E0B1E0E8E7F9E200E00BBF02C007900F
:100330000D92AE37B107D9F713E0AEE7B3E001C0D5
:100340001D92A33CB107E1F70E946D0C0C94BA1406
:100350000C940000CF93DF93CDB7DEB769970FB64B
:10036000F894DEBF0FBECDBF888F698F888D882F30
:1003700090E08E509F4F9A83898389819A81FC01F6
:1003800084918B838B818C83888D882F90E08E5213
:100390009F4F9E838D838D819E81FC0184918F83ED
:1003A0008F8188878885882309F494C08885882F61
:1003B00090E0880F991F8C549F4F9A878987898571
:1003C0009A85FC0125913491CF013C872B879A8730
:1003D00089878B859C859E878D878885882F90E06F
:1003E000880F991F82549F4F988B8F878F8598898C
:1003F000FC0125913491CF013A8B298B988B8F8703
:1004000089899A899C8B8B8B898D882331F58FE51F
:1004100090E0FC0180818D8BF8948D859E85FC0198
:100420008081982F8C8180958923282F8D859E85AA
:10043000FC0120838B899C89FC018081982F8C8111
:1004400080958923282F8B899C89FC0120838FE547
:1004500090E02D89FC0120833DC0898D823021F5FB
:100460008FE590E0FC0180818E8BF8948D859E85D0
:10047000FC018081982F8C8180958923282F8D8580
:100480009E85FC0120838B899C89FC0190818C8155
:10049000292F282B8B899C89FC0120838FE590E0F4
:1004A0002E89FC01208316C08FE590E0FC0180813D
:1004B0008F8BF8948D859E85FC0190818C81292FEE
:1004C000282B8D859E85FC0120838FE590E02F8968
:1004D000FC01208369960FB6F894DEBF0FBECDBF36
:1004E000DF91CF910895CF93DF931F92CDB7DEB701
:1004F00089838981882F90E0AA2797FDA095BA2F3C
:1005000041E050E029E030E0841B950B28173907C3
:1005100008F455C08A5B9F4FFC010C94B11480E82D
:1005200090E020E830E0F90120812F77FC01208362
:1005300046C080E890E020E830E0F90120812F7D7E
:10054000FC0120833CC084E490E024E430E0F90125
:1005500020812F77FC01208332C084E490E024E4E2
:1005600030E0F90120812F7DFC01208328C080EB41
:1005700090E020EB30E0F90120812F77FC0120830F
:100580001EC080EB90E020EB30E0F90120812F7D50
:10059000FC01208314C080E990E020E930E0F901FB
:1005A00020812F77FC0120830AC080E990E020E9B8
:1005B00030E0F90120812F7DFC01208300000F90A5
:1005C000DF91CF910895CF93DF93CDB7DEB76597D5
:1005D0000FB6F894DEBF0FBECDBF8C8B6D8B8C89B0
:1005E000882F90E08E5E9E4F9A83898389819A81BD
:1005F000FC0184918B838B818C838C89882F90E084
:100600008E509F4F9E838D838D819E81FC018491AE
:100610008F838F8188878C89882F90E08E529F4F9F
:100620009A87898789859A85FC0184918B878B8538
:100630008C878C85882309F444C08C81882319F029
:100640008C810E9473028C85882F90E0880F991FFF
:1006500082549F4F9E878D878D859E85FC012591B5
:100660003491CF01388B2F879E878D878F8598890E
:100670009A8B898B8FE590E0FC0180818B8BF894BD
:100680008D89882371F489899A89FC018081982F4A
:10069000888580958923282F89899A89FC01208360
:1006A0000BC089899A89FC0190818885292F282B84
:1006B00089899A89FC0120838FE590E02B89FC01D0
:1006C000208365960FB6F894DEBF0FBECDBFDF91D5
:1006D000CF910895CF93DF93CDB7DEB761970FB673
:1006E000F894DEBF0FBECDBF898B8989882F90E03B
:1006F0008E5E9E4F9A83898389819A81FC018491C1
:100700008B838B818C838989882F90E08E509F4FBB
:100710009E838D838D819E81FC0184918F838F8147
:1007200088878989882F90E08E529F4F9A87898782
:1007300089859A85FC0184918B878B858C878C8534
:10074000882319F480E090E026C08C81882319F07A
:100750008C810E9473028C85882F90E0880F991FEE
:1007600088539F4F9E878D878D859E85FC0125919F
:100770003491CF01388B2F879E878D878F859889FD
:10078000FC01908188858923882319F081E090E01D
:1007900002C080E090E061960FB6F894DEBF0FBE15
:1007A000CDBFDF91CF910895CF93DF93CDB7DEB763
:1007B00081E00E94F903DF91CF910895CF93DF93F9
:1007C000CDB7DEB784E690E00E94970488E30E94EC
:1007D000F90386E00E94F9038FE00E94F90381E0AB
:1007E0000E94F9038AE090E00E949704DF91CF9184
:1007F0000895CF93DF931F92CDB7DEB789838BE245
:1008000090E02BE230E0F90120812F7BFC01208376
:1008100088E290E02981FC0120838BE290E02BE2CA
:1008200030E0F90120812068FC01208300008BE288
:1008300090E02BE230E0F90120812F77FC0120834A
:1008400082E090E00E9497040F90DF91CF9108958D
:10085000CF93DF931F92CDB7DEB789838BE290E011
:100860002BE230E0F90120812064FC01208388E242
:1008700090E02981FC0120838BE290E02BE230E0C4
:10088000F90120812068FC01208300008BE290E0C8
:100890002BE230E0F90120812F77FC01208381E0F9
:1008A00090E00E9497040F90DF91CF910895CF932D
:1008B000DF9300D000D0CDB7DEB78A837C836B8313
:1008C0008A81898311C0898191E0980F99830E9460
:1008D00081048B819C819C012F5F3F4F3C832B8344
:1008E000FC0180810E9428048B819C81FC01808115
:1008F000882349F70F900F900F900F90DF91CF91C1
:100900000895CF93DF931F92CDB7DEB78983898196
:10091000813128F4898181580E94F90304C08981BA
:1009200081550E94F9030F90DF91CF910895CF93E5
:10093000DF9300D000D000D0CDB7DEB79E838D838B
:100940001A82198214C01C821B8206C000008B818F
:100950009C8101969C838B838B819C81873023E0D3
:100960009207A4F389819A8101969A8389832981C8
:100970003A818D819E81281739072CF326960FB670
:10098000F894DEBF0FBECDBFDF91CF910895CF9316
:10099000DF9300D01F92CDB7DEB789837B836A8354
:1009A00089818A3031F48A819B81BC018DE00E946B
:1009B000C70480EC90E0FC018081882F90E0807279
:1009C00099270097B1F386EC90E02981FC01208300
:1009D00080E090E00F900F900F90DF91CF910895FD
:1009E0000F931F93CF93DF931F92CDB7DEB719827A
:1009F000A6C08981282F30E0C901880F991F820F76
:100A0000931F880F991F880F991F8D569C4FFC01CB
:100A100020813181428153818981682F70E0CB012F
:100A2000880F991F860F971F880F991F880F991F8E
:100A300081579C4FFC0180819181A281B38128174D
:100A400039074A075B0708F449C08981082F10E07D
:100A50008981282F30E0C901880F991F820F931FC9
:100A6000880F991F880F991F89569C4FFC01408160
:100A700051818981282F30E0C901880F991F820F89
:100A8000931F880F991F880F991F83579C4FFC0154
:100A900080819181FA0109959C01C801880F991FF5
:100AA000800F911F880F991F880F991F83579C4FA4
:100AB000FC01318320838981282F30E0C901880F10
:100AC000991F820F931F880F991F880F991F8D56AA
:100AD0009C4FFC0110821182128213828981682F3F
:100AE00070E08981282F30E0C901880F991F820F9B
:100AF000931F880F991F880F991F8D569C4FFC01DB
:100B000080819181A281B3812AEF30E040E050E002
:100B1000280F391F4A1F5B1FCB01880F991F860FB3
:100B2000971F880F991F880F991F8D569C4FFC01A6
:100B3000208331834283538389818F5F898384E05B
:100B40009981981708F455CF0F90DF91CF911F919D
:100B50000F910895CF93DF9300D000D0CDB7DEB7CB
:100B600069837A838B839C8389819A81AB81BC81E1
:100B700080930E0190930F01A0931001B093110187
:100B800080910E0190910F01A0911001B09111017F
:100B900080937F0390938003A0938103B09382039B
:100BA0000F900F900F900F90DF91CF910895CF93FA
:100BB000DF93CDB7DEB781E890E02BE0FC01208326
:100BC00088E890E02DE730E0FC01318320838FE658
:100BD00090E022E0FC01208384E890E0FC01118297
:100BE000108280910E0190910F01A0911001B0919F
:100BF000110180937F0390938003A0938103B093AE
:100C000082038FE590E02FE530E0F9012081206834
:100C1000FC012083DF91CF910895CF93DF93CDB76F
:100C2000DEB781E890E0FC011082DF91CF9108955A
:100C30001F920F9200905F000F92112400905B00B2
:100C40000F922F933F934F935F936F937F938F9365
:100C50009F93AF93BF93EF93FF93CF93DF93CDB762
:100C6000DEB780917F0390918003A0918103B091C2
:100C700082030197A109B10980937F0390938003B8
:100C8000A0938103B093820380917F0390918003AE
:100C9000A0918103B09182030097A105B10591F461
:100CA0000E94F00480910E0190910F01A09110011B
:100CB000B091110180937F0390938003A0938103EF
:100CC000B0938203DF91CF91FF91EF91BF91AF91EC
:100CD0009F918F917F916F915F914F913F912F9154
:100CE0000F9000925B000F9000925F000F901F909A
:100CF0001895CF93DF9300D0CDB7DEB789836A8391
:100D000080E090E069810E94E30284E090E060E08E
:100D10000E94E3028EE490E02A81FC01208300001F
:100D20008DE490E0FC0180818823D4F784E090E09A
:100D300061E00E94E3020F900F90DF91CF91089540
:100D4000CF93DF9300D000D000D0CDB7DEB79B8328
:100D50008A837D836C834E838A819B8199230CF4E3
:100D60008BC08A819B81843591050CF085C08C8174
:100D70009D8199230CF480C08C819D8180339105E5
:100D80000CF07AC08C819D8187709078992324F42F
:100D90000197886F9F6F019689838E818823B1F1B7
:100DA0008C819D8199230CF407969595879595954F
:100DB00087959595879524E5289FA001299F500D3B
:100DC00011242A813B81240F351F64E5689FA0010F
:100DD000699F500D11248A819B81840F951F8E5E1F
:100DE0009E4FFC018081682F8981482F50E081E06F
:100DF00090E002C0880F991F4A95E2F7862B482F92
:100E0000C9018E5E9E4FFC01408336C08C819D815E
:100E100099230CF4079695958795959587959595C3
:100E2000879524E5289FA001299F500D11242A8130
:100E30003B81240F351F64E5689FA001699F500D19
:100E400011248A819B81840F951F8E5E9E4FFC0129
:100E50008081682F8981482F50E081E090E002C0B6
:100E6000880F991F4A95E2F780958623482FC9017C
:100E70008E5E9E4FFC01408326960FB6F894DEBF2F
:100E80000FBECDBFDF91CF9108950F93CF93DF9326
:100E9000CDB7DEB765970FB6F894DEBF0FBECDBFF6
:100EA0009E878D87788B6F875A8B498B3C8B2B8BDA
:100EB0000D8B2B893C898F859889A901481B590B7B
:100EC000CA019A83898329893A898D859E85A901DA
:100ED000481B590BCA019C838B8389819A81992372
:100EE00064F489819A819195819591099A83898386
:100EF0008FEF9FEF98878F8304C081E090E0988701
:100F00008F838B819C81992364F48B819C81919543
:100F1000819591099C838B838FEF9FEF9E838D83B7
:100F200004C081E090E09E838D8389819A81880F3F
:100F3000991F9A8389838B819C81880F991F9C8339
:100F40008B832F8538898D859E854D89B9010E94B7
:100F5000A0062B813C8189819A81821793070CF02E
:100F600043C08B819C819595879529813A81A90100
:100F7000481B590BCA019A8789872EC089859A8593
:100F8000992394F02F8538898F819885820F931F3C
:100F9000988B8F8729853A858B819C81A901481B75
:100FA000590BCA019A8789872D853E858D819E813F
:100FB000820F931F9E878D8729853A8589819A8123
:100FC000820F931F9A8789872F8538898D859E8503
:100FD0004D89B9010E94A0062D853E8589899A898F
:100FE0002817390759F642C089819A8195958795C6
:100FF0002B813C81A901481B590BCA019C878B8717
:101000002EC08B859C85992394F02D853E858D81FE
:101010009E81820F931F9E878D872B853C858981BA
:101020009A81A901481B590BCA019C878B872F8580
:1010300038898F819885820F931F988B8F872B8596
:101040003C858B819C81820F931F9C878B872F858A
:1010500038898D859E854D89B9010E94A0062F850E
:1010600038898B899C892817390759F665960FB6F8
:10107000F894DEBF0FBECDBFDF91CF910F910895E1
:10108000EF920F93CF93DF93CDB7DEB72C970FB6C8
:10109000F894DEBF0FBECDBF9C838B837E836D83B0
:1010A00058874F833A8729870B87EC868B8588235F
:1010B00009F445C02B813C818F8198858217930765
:1010C0005CF42B813C818F819885A901481B590BC9
:1010D000CA019A8389830AC02F8138858B819C81BC
:1010E000A901481B590BCA019A83898322C029850B
:1010F0003A854B815C816D817E818B819C810C85E1
:101100000E9445072B813C818F8198858217930728
:1011100034F48B819C8101979C838B8305C08B81E8
:101120009C8101969C838B8389819A8101979A8304
:10113000898389819A8118161906CCF22CC02D81D9
:101140003E814F8158856D817E818B819C810C858C
:101150000E94450729853A854F81588569857A859A
:101160008B819C810C850E94450729853A854B819E
:101170005C816D817E818B819C810C850E944507FD
:1011800029853A854F8158856D817E818F8198852B
:101190000C850E9445072C960FB6F894DEBF0FBE53
:1011A000CDBFDF91CF910F91EF9008950F931F93D3
:1011B000CF93DF93CDB7DEB765970FB6F894DEBF58
:1011C0000FBECDBF9E878D87788B6F875A8B498BDB
:1011D0002B8B1D8B0C8B1A82198212C121E030E0FF
:1011E00089899A89A901481B590BCA019C838B8361
:1011F0001E821D8229893A8980E090E0821B930B30
:10120000880F991F98878F831A86198689899A89EA
:101210009C878B872F85388989899A89280F391F60
:101220008D859E854B89B9010E94A0062F8538893E
:1012300089899A89281B390B8D859E854B89B9012F
:101240000E94A0062D853E8589899A89820F931F69
:101250002F8538894B89B9010E94A0062D853E85CE
:1012600089899A89A901481B590BCA012F85388998
:101270004B89B9010E94A006B1C08B819C81992342
:1012800094F08B859C8501979C878B878F819885AF
:10129000029698878F832B813C818F819885820F5E
:1012A000931F9C838B8389859A8501969A8789876A
:1012B0008D819E8102969E838D838D819E81019674
:1012C0002B813C81820F931F9C838B832F853889D0
:1012D0008B859C85B901680F791F2D853E85898591
:1012E0009A85820F931F4B890E94A0062F8538890B
:1012F0008B859C85B901680F791F2D853E85898571
:101300009A85A901481B590BCA014B890E94A00666
:101310002F8538898B859C85B901681B790B2D85B4
:101320003E8589859A85820F931F4B890E94A0066E
:101330002F8538898B859C85B901681B790B2D8594
:101340003E8589859A85A901481B590BCA014B899D
:101350000E94A0062F85388989859A85B901680F72
:10136000791F2D853E858B859C85820F931F4B8928
:101370000E94A0062F85388989859A85B901680F52
:10138000791F2D853E858B859C85A901481B590BAE
:10139000CA014B890E94A0062F85388989859A85C4
:1013A000B901681B790B2D853E858B859C85820F45
:1013B000931F4B890E94A0062F85388989859A85BD
:1013C000B901681B790B2D853E858B859C85A9010C
:1013D000481B590BCA014B890E94A00629853A85F2
:1013E0008B859C85281739070CF447CF89899A8902
:1013F00001979A8B898B89819A8101969A83898337
:1014000029813A818C899D89281739070CF4E6CE09
:1014100065960FB6F894DEBF0FBECDBFDF91CF91BA
:101420001F910F910895CF93DF93CDB7DEB72E971D
:101430000FB6F894DEBF0FBECDBF89877B876A8762
:101440005D874C872E871A8219826AC08985992701
:1014500087FD90959C0120523109C901880F991F81
:10146000880F991F820F931F29813A81820F931F42
:101470008E5C9E4F9E838D838D819E81FC01849125
:101480008F838F8188871C821B823FC08885882F2D
:1014900090E00B8002C0959587950A94E2F78170E1
:1014A0009927009789F02C853D858B819C81B90116
:1014B000680F791F2A853B8589819A81820F931F46
:1014C0004E850E94A0061CC08E85882F90E021E0EA
:1014D000009709F420E081E08227882F90E0482FD0
:1014E00041702C853D858B819C81B901680F791FE6
:1014F0002A853B8589819A81820F931F0E94A006CD
:101500008B819C8101969C838B838B819C8188300D
:1015100091050CF4BBCF89819A8101969A838983C6
:1015200089819A81853091050CF490CF2E960FB663
:10153000F894DEBF0FBECDBFDF91CF910895CF935A
:10154000DF93CDB7DEB729970FB6F894DEBF0FBE95
:10155000CDBF9C838B837E836D8358874F83298780
:1015600050C08B819C819C012F5F3F4F3C832B831C
:10157000FC0130814F8158858D819E812985BC0178
:10158000832F0E94130A8D819E8105969E838D83F1
:101590008F8198859A83898319C08985882F90E0E7
:1015A00021E0009709F420E081E08227882F90E075
:1015B000482F417029813A818D819E81B9010E9415
:1015C000A00689819A8101969A8389838F81988563
:1015D0009C01285F3F4F89819A8182179307ECF223
:1015E0008D819E8101969E838D838D819E81803524
:1015F00091053CF01E821D828F8198850896988700
:101600008F838B819C81FC018081882309F0A9CF85
:1016100029960FB6F894DEBF0FBECDBFDF91CF91F4
:101620000895CF93DF93CDB7DEB728970FB6F89420
:10163000DEBF0FBECDBF98878F831A8219821BC071
:1016400089819A812F813885820F931F9C838B8398
:101650008B819C81FC0184918D838D818E832E8171
:1016600089819A818E5E9E4FFC01208389819A81B7
:1016700001969A83898389819A81883FF1E09F0747
:10168000FCF228960FB6F894DEBF0FBECDBFDF91F7
:10169000CF910895CF93DF9300D01F92CDB7DEB7DF
:1016A0008B831A82198216C08B81882341F089812D
:1016B0009A818E5E9E4F2FEFFC01208306C08981A8
:1016C0009A818E5E9E4FFC01108289819A810196DB
:1016D0009A83898389819A81883FF1E09F0724F367
:1016E0000F900F900F90DF91CF910895CF93DF93DC
:1016F00000D000D0CDB7DEB79A8389837C836B831B
:1017000089818068682F80E00E9479068B818064DF
:10171000682F80E00E9479060F900F900F900F9035
:10172000DF91CF910895CF93DF9300D0CDB7DEB78F
:1017300060E070E080E090E00E94760B1A821982EF
:101740000FC089819A818E5E9E4FFC018081682F37
:1017500081E00E94790689819A8101969A83898322
:1017600089819A81883FF1E09F075CF30F900F9089
:10177000DF91CF910895CF93DF931F92CDB7DEB75E
:10178000898361E280E00E94790689818068682F00
:1017900080E00E94790660E280E00E9479060F9066
:1017A000DF91CF910895CF93DF9300D0CDB7DEB70F
:1017B0001A82198213C089819A818E5E9E4FFC0124
:1017C0008081282F209589819A818E5E9E4FFC0111
:1017D000208389819A8101969A83898389819A815C
:1017E000883FF1E09F073CF30E94930B0F900F900E
:1017F000DF91CF910895CF93DF93CDB7DEB784E02B
:1018000090E061E00E94AA0181E090E061E00E9426
:10181000AA0180E090E061E00E94AA0185E090E0EA
:1018200061E00E94AA0187E090E061E00E94AA01C5
:101830008CE090E061E00E94AA018CE090E06FEF04
:1018400070E00E94C8138CE490E021E5FC01208345
:101850008CE490E02CE430E0F9012081237DFC0150
:10186000208381E090E060E00E94E30284E690E063
:101870000E94970481E090E061E00E94E30261E24F
:1018800080E00E94790661EB80E00E94790664E0C6
:1018900080E00E94790664E180E00E94790660E2BF
:1018A00080E00E9479066CE080E00E94790680E08A
:1018B0000E944A0BDF91CF910895CF93DF93CDB76C
:1018C000DEB78AE790E02AE730E0F9012081206E58
:1018D000FC012083DF91CF910895CF93DF931F9276
:1018E000CDB7DEB781E290E0FC01108282E290E0A9
:1018F0002FEFFC01208384E290E02FEFFC01208396
:1019000085E290E0FC0110828AE290E02FEFFC017A
:1019100020838BE290E0FC01108219828981282FBC
:1019200030E0C901880F991F820F931F880F991FFC
:10193000880F991F83579C4FFC0111821082898167
:10194000682F70E024EF31E040E050E0CB01880FD9
:10195000991F860F971F880F991F880F991F81570E
:101960009C4FFC0120833183428353838981682FFC
:1019700070E08981282F30E0C901880F991F820FFC
:10198000931F880F991F880F991F81579C4FFC0147
:101990002081318142815381CB01880F991F860FAD
:1019A000971F880F991F880F991F8D569C4FFC0118
:1019B00020833183428353838981282F30E0C901FA
:1019C000880F991F820F931F880F991F880F991FE7
:1019D00089569C4F26E53EE0FC01318320838981B6
:1019E0008F5F89838981282F30E0C901880F991F73
:1019F000820F931F880F991F880F991F83579C4F41
:101A0000FC01118210828981682F70E024EF31E09F
:101A100040E050E0CB01880F991F860F971F880F79
:101A2000991F880F991F81579C4FFC012083318398
:101A3000428353838981682F70E08981282F30E0A9
:101A4000C901880F991F820F931F880F991F880F54
:101A5000991F81579C4FFC01208131814281538124
:101A6000CB01880F991F860F971F880F991F880F2A
:101A7000991F8D569C4FFC012083318342835383F1
:101A80008981282F30E0C901880F991F820F931F89
:101A9000880F991F880F991F89569C4F25EB3EE0B0
:101AA000FC013183208389818F5F89838981282F7D
:101AB00030E0C901880F991F820F931F880F991F6B
:101AC000880F991F83579C4FFC01118210828981D6
:101AD000682F70E024EF31E040E050E0CB01880F48
:101AE000991F860F971F880F991F880F991F81577D
:101AF0009C4FFC0120833183428353838981682F6B
:101B000070E08981282F30E0C901880F991F820F6A
:101B1000931F880F991F880F991F81579C4FFC01B5
:101B20002081318142815381CB01880F991F860F1B
:101B3000971F880F991F880F991F8D569C4FFC0186
:101B400020833183428353838981282F30E0C90168
:101B5000880F991F820F931F880F991F880F991F55
:101B600089569C4F28EA30E1FC013183208389812A
:101B70008F5F89838981282F30E0C901880F991FE1
:101B8000820F931F880F991F880F991F83579C4FAF
:101B9000FC01118210828981682F70E02AEF30E009
:101BA00040E050E0CB01880F991F860F971F880FE8
:101BB000991F880F991F81579C4FFC012083318307
:101BC000428353838981682F70E08981282F30E018
:101BD000C901880F991F820F931F880F991F880FC3
:101BE000991F81579C4FFC01208131814281538193
:101BF000CB01880F991F860F971F880F991F880F99
:101C0000991F8D569C4FFC0120833183428353835F
:101C10008981282F30E0C901880F991F820F931FF7
:101C2000880F991F880F991F89569C4F2FE431E127
:101C3000FC01318320830E945D0C0E94FB0B80918C
:101C400027039091280321E040E050E060E070E03D
:101C50000E949F0A8091290390912A0321E048E085
:101C600050E060E070E00E949F0A80912B03909109
:101C70002C0321E040E250E060E070E00E949F0A07
:101C800080912D0390912E0321E048E250E060E026
:101C900070E00E949F0A8AEF90E0A0E0B0E0BC01F3
:101CA000CD010E94AA050E94D705FFCFCF93DF93F5
:101CB00000D0CDB7DEB79A83898389819A81009756
:101CC00021F08130910531F00AC081E090E09A83E3
:101CD000898308C081E090E09A83898303C01A82D7
:101CE0001982000089819A818130910509F036C0FE
:101CF0008AE790E02AE730E0F90120812064FC01C6
:101D000020838CE790E0FC01108288E790E0FC01E2
:101D100080819181909386038093850381E090E098
:101D20000E9497048AE790E02AE730E0F9012081D9
:101D30002064FC0120838CE790E02CE730E0F9017F
:101D400020812160FC01208388E790E0FC018081F4
:101D500091819093840380938303000089819A8109
:101D60000F900F90DF91CF910895CF93DF9300D024
:101D7000CDB7DEB79A83898380910A0390910B03D4
:101D80009C01AFE2BAEB0E94A214969587959695B6
:101D90008795969587959093BE038093BD0389811F
:101DA0009A81009721F08130910531F00AC081E0DD
:101DB00090E09A83898308C081E090E09A838983C8
:101DC00003C01A821982000089819A8181309105AD
:101DD00009F0B7C18091BD039091BE03880F991F90
:101DE0009C01220F331F220F331F280F391F8091B0
:101DF0008303909184038217930720F085E08093FA
:101E0000BF03C0C02091BD033091BE03C901880F3C
:101E1000991F880F991F880F991F280F391F8091CC
:101E20008303909184038217930720F084E08093CA
:101E3000BF03A8C08091BD039091BE039C01220FF7
:101E4000331F220F331F220F331F80918303909182
:101E500084038217930720F083E08093BF0392C02E
:101E60002091BD033091BE03C901880F991F880FCF
:101E7000991F880F991FAC01421B530B9A01809147
:101E80008303909184038217930720F082E080936C
:101E9000BF0378C02091BD033091BE03C901880FF4
:101EA000991F820F931F880F991F9C0180918303B4
:101EB000909184038217930720F081E08093BF0301
:101EC00061C02091BD033091BE03C901880F991FE5
:101ED000880F991F280F391F8091830390918403E5
:101EE0008217930718F01092BF034CC08091BD0376
:101EF0009091BE039C01220F331F220F331F80914C
:101F00008303909184038217930720F08FEF8093CF
:101F1000BF0338C02091BD033091BE03C901880FB3
:101F2000991F280F391F8091830390918403821792
:101F3000930720F08EEF8093BF0324C08091BD03F0
:101F40009091BE039C01220F331F809183039091D7
:101F500084038217930720F08DEF8093BF0312C094
:101F600020918303309184038091BD039091BE033F
:101F70002817390720F08CEF8093BF0303C08BEF45
:101F80008093BF038091BF0381958093BF038091AD
:101F9000BD039091BE03880F991F9C01220F331F30
:101FA000220F331F280F391F8091850390918603DC
:101FB0008217930720F085E08093C203C1C020916F
:101FC000BD033091BE03C901880F991F880F991F67
:101FD000880F991F280F391F8091850390918603E0
:101FE0008217930720F084E08093C203A9C08091F8
:101FF000BD039091BE039C01220F331F220F331F9C
:10200000220F331F809185039091860382179307D7
:1020100020F083E08093C20393C02091BD033091F0
:10202000BE03C901880F991F880F991F880F991F38
:10203000AC01421B530B9A0180918503909186035A
:102040008217930720F082E08093C20379C0209129
:10205000BD033091BE03C901880F991F820F931FE2
:10206000880F991F9C0180918503909186038217A8
:10207000930720F081E08093C20362C02091BD03EA
:102080003091BE03C901880F991F880F991F280F2F
:10209000391F80918503909186038217930718F06A
:1020A0001092C2034DC08091BD039091BE039C016C
:1020B000220F331F220F331F8091850390918603D7
:1020C0008217930720F08FEF8093C20339C02091CD
:1020D000BD033091BE03C901880F991F280F391F16
:1020E00080918503909186038217930720F08EEFED
:1020F0008093C20325C08091BD039091BE039C01D3
:10210000220F331F809185039091860382179307D6
:1021100020F08DEF8093C20313C02091850330918E
:1021200086038091BD039091BE032817390720F0E4
:102130008CEF8093C20304C08BEF8093C20300C076
:10214000000089819A810F900F90DF91CF910895BF
:10215000CF93DF9300D0CDB7DEB79A83898389818F
:102160009A81009721F081309105A1F018C010925A
:10217000C0031092C103109287031092880310923B
:10218000890310928A0310928B0381E090E09A8376
:10219000898308C081E090E09A83898303C01A8212
:1021A0001982000089819A818130910509F070C0FF
:1021B00080918803982F8091BF03890F80938803B3
:1021C00080918903982F8091C203890F809389039E
:1021D00080918703882309F457C08091880388235E
:1021E0000CF48F5F8595982F80918A03890F9091C9
:1021F000C003890F8093C0038091890388230CF466
:102200008F5F8595982F80918B03890F9091C103E3
:10221000890F8093C1038091C003833324F082E34C
:102220008093C00307C08091C0038E3C1CF48EECE9
:102230008093C0038091C103833324F082E38093B1
:10224000C10307C08091C1038E3C1CF48EEC8093C7
:10225000C10380918803817888231CF481508E6F9C
:102260008F5F80938A0380918903817888231CF48F
:1022700081508E6F8F5F80938B0310928803109232
:1022800089031092870303C081E0809387030000D5
:1022900089819A810F900F90DF91CF910895CF930C
:1022A000DF9300D0CDB7DEB79A83898389819A8185
:1022B000009721F08130910531F00AC081E090E073
:1022C0009A83898308C081E090E09A83898303C060
:1022D0001A821982000089819A818130910509F062
:1022E000FBC18091BF038823CCF48091BF0381950B
:1022F00080938C038091260321E040E050E064E26B
:1023000070E00E94130A80918C03805D21E040E020
:1023100050E06AE270E00E94130A12C021E040E03F
:1023200050E064E270E080E20E94130A8091BF03F3
:10233000805D21E040E050E06AE270E00E94130A14
:102340008091C2038823CCF48091C203819580934D
:102350008C038091260321E048E050E064E270E0C5
:102360000E94130A80918C03805D21E048E050E0D8
:102370006AE270E00E94130A12C021E048E050E0D7
:1023800064E270E080E20E94130A8091C203805DE3
:1023900021E048E050E06AE270E00E94130A809178
:1023A000C00388230CF05FC08091260321E040E247
:1023B00050E064E270E00E94130A8091C0038195AE
:1023C00080938C0380918C038A3058F190918C0318
:1023D0008DEC989F812D1124869586958695805D3C
:1023E00021E040E250E06AE270E00E94130A90911E
:1023F0008C038DEC989F812D11248695869586956A
:10240000880F282F220F220F820F292F281B822F9F
:10241000805D21E040E250E060E370E00E94130A3A
:102420008BC021E040E250E06AE270E080E20E946E
:10243000130A90918C038DEC989F812D1124869521
:1024400086958695880F282F220F220F820F392F0D
:10245000381B832F805D21E040E250E060E370E0B4
:102460000E94130A69C021E040E250E064E270E09B
:1024700080E20E94130A8091C003875F8331A8F134
:102480008091C00397E68902912D11249595959529
:10249000880F880B292F281B822F805D21E040E2C6
:1024A00050E06AE270E00E94130A9091C00387E650
:1024B0009802812D1124282F25952595892F880F85
:1024C000880B322F381B832F880F282F220F220FC3
:1024D000820F292F281B822F805D21E040E250E0EF
:1024E00060E370E00E94130A27C021E040E250E060
:1024F0006AE270E080E20E94130A9091C00387E6CE
:102500009802812D1124282F25952595892F880F34
:10251000880B322F381B832F880F282F220F220F72
:10252000820F292F281B822F805D21E040E250E09E
:1025300060E370E00E94130A8091C10388230CF0CD
:102540005FC08091260321E048E250E064E270E041
:102550000E94130A8091C103819580938C0380911E
:102560008C038A3058F190918C038DEC989F812DCB
:102570001124869586958695805D21E048E250E09D
:102580006AE270E00E94130A90918C038DEC989F90
:10259000812D1124869586958695880F282F220FE8
:1025A000220F820F392F381B832F805D21E048E2F4
:1025B00050E060E370E00E94130A8BC021E048E223
:1025C00050E06AE270E080E20E94130A90918C036E
:1025D0008DEC989F812D1124869586958695880F80
:1025E000282F220F220F820F292F281B822F805D78
:1025F00021E048E250E060E370E00E94130A69C005
:1026000021E048E250E064E270E080E20E94130AB8
:102610008091C103875F8331A8F18091C10397E660
:102620008902912D112495959595880F880B392F46
:10263000381B832F805D21E048E250E06AE270E0C1
:102640000E94130A9091C10387E69802812D1124FC
:10265000282F25952595892F880F880B322F381B19
:10266000832F880F282F220F220F820F292F281B3C
:10267000822F805D21E048E250E060E370E00E943C
:10268000130A27C021E048E250E06AE270E080E2ED
:102690000E94130A9091C10387E69802812D1124AC
:1026A000282F25952595892F880F880B322F381BC9
:1026B000832F880F282F220F220F820F292F281BEC
:1026C000822F805D21E048E250E060E370E00E94EC
:1026D000130A0E94930B000089819A810F900F903A
:1026E000DF91CF910895CF93DF931F92CDB7DEB7DF
:1026F0008983898180932F030F90DF91CF91089573
:10270000CF93DF931F92CDB7DEB78983898188305D
:1027100058F08981883130F09FE18981292F281B69
:10272000822F03C08FEF01C0898189838CE790E0FD
:1027300020912F03222F30E000243695279507940F
:10274000369527950794322F202D322F2981277017
:10275000232BFC0120838AE790E02AE730E0F9018F
:1027600020812064FC01208300008AE790E0FC01C6
:102770008081882F90E0807499270097B1F788E7CF
:1027800090E0FC01808191810F90DF91CF910895BD
:10279000CF93DF9300D000D000D0CDB7DEB78C83CD
:1027A0007E836D8361E08C810E94AA018D819E8170
:1027B000009729F460E08C810E94E302BAC08D8109
:1027C0009E818F3F910529F461E08C810E94E30294
:1027D000B0C08C81882F90E08E5E9E4F9A83898353
:1027E00089819A81FC0184918B838B81882F90E071
:1027F000AA2797FDA095BA2F41E050E029E030E0EC
:10280000841B950B2817390708F485C0805B9F4F00
:10281000FC010C94B11484E490E024E430E0F9016C
:1028200020812068FC01208387E490E02D81FC0159
:1028300020837FC084E490E024E430E0F90120812B
:102840002062FC01208388E490E02D81FC0120833C
:1028500070C080E890E020E830E0F9012081206835
:10286000FC01208388E890E02D813E81FC013183CA
:1028700020835FC080E890E020E830E0F90120810B
:102880002062FC0120838AE890E02D813E81FC01DA
:10289000318320834EC080EB90E020EB30E0F901E3
:1028A00020812068FC01208383EB90E02D81FC01D6
:1028B00020833FC080EB90E020EB30E0F9012081E5
:1028C0002062FC01208384EB90E02D81FC012083B9
:1028D00030C080E990E020E930E0F90120812068F3
:1028E000FC01208388E990E02D813E81FC01318349
:1028F00020831FC080E990E020E930E0F9012081C9
:102900002062FC0120838AE990E02D813E81FC0158
:10291000318320830EC08D819E81803891052CF4F7
:1029200060E08C810E94E30204C061E08C810E941F
:10293000E30226960FB6F894DEBF0FBECDBFDF913F
:10294000CF910895A29FB001B39FC001A39F700DC6
:10295000811D1124911DB29F700D811D1124911DA7
:102960000895EE0FFF1F0024001C0BBE0790F69188
:08297000E02D0994F894FFCF5B
:102978000000000200000000C70400000000010081
:10298800000000000000000000000000000000003F
:10299800000000000000000000000000000000002F
:1029A8000000000000E0F0F8FCFCFEFEFEFE1E0E3B
:1029B800020000000000000000000000000000000D
:1029C80000000000000000000000000000000000FF
:1029D80000000000000000000000000000000000EF
:1029E80000000000000000000000000000000000DF
:1029F800000000000000000000030F1F3F7FFFFFE2
:102A0800FFFFFFFEFCF8F8F0F8FEFEFCF8E000001F
:102A180000000000000000000000000000000000AE
:102A2800000000000000000000000000000000009E
:102A3800000000000000000000000000000000008E
:102A480000000000F8FCFEFEFFFFF3E0E0C0C0C09D
:102A5800E0E0F1FFFFFFFFFFFFFFFFFFFFFFFFFFCA
:102A6800FFFF3E0000000000000000000000000022
:102A7800000000000000000000000000000000004E
:102A8800000000000000000000000000000000003E
:102A98000000000000000000FFFFFFFFFFFFFFFF36
:102AA800FFFFFFFFFFFFFFFFFFFFFFFFFFFFFFFF2E
:102AB800FF7F3F1F0701000000000000000000002A
:102AC80000000000000000000000000000000000FE
:102AD80000000000000000000000000000000000EE
:102AE800000000000000000000000000FFFFFFFFE2
:102AF800FFFFFF7F3F1F0F0F0F0707070707070796
:102B080003030101000000000000000000000000B5
:102B180000000000000000000000000000000000AD
:102B2800000000000000000000000000000000009D
:102B3800000000000000000000000000000000008D
:102B48003F1F0F0703010000000000000000000005
:102B5800000000000000000000000000000000006D
:102B6800000000000000000000000000000000005D
:102B780000000000000000000000EC031E00765377
:102B880050443A00685350443A0076504F533A0044
:102B980068504F533A002D0E0314031A0320030103
:102BA800001F1E1D1C1B1A19180405060711100406
:102BB800FA000000F4010000F4010000F401000034
:102BC800FA000000001F1E1D1C1B1A191804050618
:102BD800071110040001000000050007000C0000A8
:0E2BE8001F1E1D1C1B1A1918040506071110CC
:00000001FF
