:100000000C9477010C9496010C9496010C94960133
:100010000C9496010C9496010C9496010C94960104
:100020000C9496010C9496010C9496010C949601F4
:100030000C9496010C9456050C9496010C94960120
:100040000C9496010C9496010C9496010C949601D4
:100050000C9496010C9496010C9496010C949601C4
:100060000C9496010C9496010C9496010C949601B4
:100070000C9496010C9496010C9496010C949601A4
:100080000C9496010C9496010C94960191029B029B
:100090007D028702CD02CD02A502AF02B902C302E2
:1000A0000C111B112A113B118C118C114C115B117D
:1000B0006A117B1100000000240027002A000000C4
:1000C0000000250028002B0000000000230026006F
:1000D00029000404040404040404020202020202CB
:1000E00003030303030301020408102040800102FC
:1000F000040810200102040810200000000800027B
:1001000001000003040700000000000000000000E0
:1001100000000000005F00000007000700147F14CB
:100120007F14242A7F2A1223130864623649552239
:10013000500005030000001C2241000041221C0069
:1001400014083E081408083E080800503000000853
:1001500008080808006060000020100804023E51F2
:1001600049453E00427F4000426151494621414598
:100170004B311814127F1027454545393C4A4949EF
:100180003001710905033649494936064949291E96
:1001900000363600000056360000081422410014D4
:1001A00014141414004122140802015109063249A2
:1001B00079413E7E1111117E7F494949363E4141C8
:1001C00041227F4141221C7F494949417F09090958
:1001D000013E4149497A7F0808087F00417F41007C
:1001E0002040413F017F081422417F404040407F32
:1001F000020C027F7F0408107F3E4141413E7F098F
:100200000909063E4151215E7F091929464649499F
:10021000493101017F01013F4040403F1F20402004
:100220001F3F4038403F63140814630708700807F5
:100230006151494543007F414100020408102000FC
:1002400041417F000402010204404040404000015F
:1002500002040020545454787F48444438384444BD
:100260004420384444487F3854545418087E0901C7
:10027000020C5252523E7F0804047800447D400034
:100280002040443D007F1028440000417F40007C16
:10029000041804787C0804047838444444387C14F6
:1002A000141408081414187C7C08040408485454D6
:1002B0005420043F4440203C4040207C1C204020EF
:1002C0001C3C4030403C44281028440C5050503CCA
:1002D0004464544C44000836410000007F00000094
:1002E0004136080010080810087846414678112465
:1002F0001FBECFEFD0E4DEBFCDBF13E0A0E0B1E082
:10030000EAECF3E200E00BBF02C007900D92A836C2
:10031000B107D9F713E0A8E6B3E001C01D92AA38EF
:10032000B107E1F70E9433100C94E3110C94000024
:10033000CF93DF93CDB7DEB769970FB6F894DEBFE2
:100340000FBECDBF888F698F888D882F90E08A512E
:100350009F4F9A83898389819A81FC0184918B8341
:100360008B818C83888D882F90E08E529F4F9E8347
:100370008D838D819E81FC0184918F838F818887FD
:100380008885882309F494C08885882F90E0880F99
:10039000991F8C549F4F9A87898789859A85FC017C
:1003A00025913491CF013C872B879A8789878B854C
:1003B0009C859E878D878885882F90E0880F991F60
:1003C00082549F4F988B8F878F859889FC01259148
:1003D0003491CF013A8B298B988B8F8789899A89A1
:1003E0009C8B8B8B898D882331F58FE590E0FC0108
:1003F00080818D8BF8948D859E85FC018081982F5E
:100400008C8180958923282F8D859E85FC012083F2
:100410008B899C89FC018081982F8C818095892310
:10042000282F8B899C89FC0120838FE590E02D8902
:10043000FC0120833DC0898D823021F58FE590E05D
:10044000FC0180818E8BF8948D859E85FC018081D6
:10045000982F8C8180958923282F8D859E85FC017E
:1004600020838B899C89FC0190818C81292F282BEA
:100470008B899C89FC0120838FE590E02E89FC010B
:10048000208316C08FE590E0FC0180818F8BF8946B
:100490008D859E85FC0190818C81292F282B8D854F
:1004A0009E85FC0120838FE590E02F89FC0120834D
:1004B00069960FB6F894DEBF0FBECDBFDF91CF9126
:1004C0000895CF93DF931F92CDB7DEB789838981DB
:1004D000882F90E0AA2797FDA095BA2F41E050E021
:1004E00029E030E0841B950B2817390708F455C024
:1004F0008A5B9F4FFC010C94C61180E890E020E8D5
:1005000030E0F90120812F77FC01208346C080E88C
:1005100090E020E830E0F90120812F7DFC0120836C
:100520003CC084E490E024E430E0F90120812F779E
:10053000FC01208332C084E490E024E430E0F9013F
:1005400020812F7DFC01208328C080EB90E020EBF0
:1005500030E0F90120812F77FC0120831EC080EB61
:1005600090E020EB30E0F90120812F7DFC01208319
:1005700014C080E990E020E930E0F90120812F7774
:10058000FC0120830AC080E990E020E930E0F90115
:1005900020812F7DFC01208300000F90DF91CF91FF
:1005A0000895CF93DF93CDB7DEB765970FB6F89474
:1005B000DEBF0FBECDBF8C8B6D8B8C89882F90E0FA
:1005C00086509F4F9A83898389819A81FC01849107
:1005D0008B838B818C838C89882F90E08A519F4FED
:1005E0009E838D838D819E81FC0184918F838F8179
:1005F00088878C89882F90E08E529F4F9A878987B1
:1006000089859A85FC0184918B878B858C878C8565
:10061000882309F444C08C81882319F08C810E94BE
:1006200061028C85882F90E0880F991F82549F4F1C
:100630009E878D878D859E85FC0125913491CF0104
:10064000388B2F879E878D878F8598899A8B898B8A
:100650008FE590E0FC0180818B8BF8948D89882355
:1006600071F489899A89FC018081982F8885809509
:100670008923282F89899A89FC0120830BC08989C5
:100680009A89FC0190818885292F282B89899A894C
:10069000FC0120838FE590E02B89FC012083659687
:1006A0000FB6F894DEBF0FBECDBFDF91CF91089596
:1006B000CF93DF93CDB7DEB761970FB6F894DEBF67
:1006C0000FBECDBF898B8989882F90E086509F4FC0
:1006D0009A83898389819A81FC0184918B838B81A0
:1006E0008C838989882F90E08A519F4F9E838D83C8
:1006F0008D819E81FC0184918F838F818887898978
:10070000882F90E08E529F4F9A87898789859A8596
:10071000FC0184918B878B858C878C85882319F4C9
:1007200080E090E026C08C81882319F08C810E94A3
:1007300061028C85882F90E0880F991F88539F4F06
:100740009E878D878D859E85FC0125913491CF01F3
:10075000388B2F879E878D878F859889FC019081A4
:1007600088858923882319F081E090E002C080E029
:1007700090E061960FB6F894DEBF0FBECDBFDF915B
:10078000CF910895CF93DF93CDB7DEB781E00E947C
:10079000E703DF91CF910895CF93DF93CDB7DEB715
:1007A00084E690E00E94850488E30E94E70386E0E7
:1007B0000E94E7038FE00E94E70381E00E94E703C5
:1007C0008AE090E00E948504DF91CF910895CF9355
:1007D000DF931F92CDB7DEB789838BE290E02BE2E7
:1007E00030E0F90120812F7BFC01208388E290E03A
:1007F0002981FC0120838BE290E02BE230E0F901BB
:1008000020812068FC01208300008BE290E02BE235
:1008100030E0F90120812F77FC01208382E090E015
:100820000E9485040F90DF91CF910895CF93DF93BD
:100830001F92CDB7DEB789838BE290E02BE230E0E8
:10084000F90120812064FC01208388E290E0298165
:10085000FC0120838BE290E02BE230E0F901208163
:100860002068FC01208300008BE290E02BE230E066
:10087000F90120812F77FC01208381E090E00E9424
:1008800085040F90DF91CF910895CF93DF9300D02F
:1008900000D0CDB7DEB78A837C836B838A8189835E
:1008A00011C0898191E0980F99830E946F048B8118
:1008B0009C819C012F5F3F4F3C832B83FC018081F7
:1008C0000E9416048B819C81FC018081882349F75A
:1008D0000F900F900F900F90DF91CF910895CF93CD
:1008E000DF931F92CDB7DEB789838981813128F4E8
:1008F000898181580E94E70304C0898181550E9443
:10090000E7030F90DF91CF910895CF93DF9300D04D
:1009100000D000D0CDB7DEB79E838D831A821982B6
:1009200014C01C821B8206C000008B819C81019632
:100930009C838B838B819C81873023E09207A4F377
:1009400089819A8101969A83898329813A818D814F
:100950009E81281739072CF326960FB6F894DEBF30
:100960000FBECDBFDF91CF910895CF93DF9300D01D
:100970001F92CDB7DEB789837B836A8389818A30F2
:1009800031F48A819B81BC018DE00E94B50480EC2A
:1009900090E0FC018081882F90E080729927009779
:1009A000B1F386EC90E02981FC01208380E090E0A7
:1009B0000F900F900F90DF91CF910895CF93DF9319
:1009C00000D000D0CDB7DEB769837A838B839C8358
:1009D00089819A81AB81BC8180930E0190930F0134
:1009E000A0931001B093110180910E0190910F011D
:1009F000A0911001B09111018093690390936A0353
:100A0000A0936B03B0936C030F900F900F900F9017
:100A1000DF91CF910895CF93DF93CDB7DEB781E813
:100A200090E02BE0FC01208388E890E02DE730E0A7
:100A3000FC01318320838FE690E022E0FC012083DB
:100A400084E890E0FC011182108280910E01909167
:100A50000F01A0911001B09111018093690390934F
:100A60006A03A0936B03B0936C038FE590E02FE5CE
:100A700030E0F90120812068FC012083DF91CF91D3
:100A80000895CF93DF93CDB7DEB781E890E0FC0106
:100A90001082DF91CF910895CF93DF93CDB7DEB76A
:100AA00081E080936803DF91CF9108951F920F92A8
:100AB00000905F000F92112400905B000F922F9323
:100AC0003F934F935F936F937F938F939F93AF93D6
:100AD000BF93EF93FF93CF93DF93CDB7DEB78091B2
:100AE000690390916A03A0916B03B0916C03019725
:100AF000A109B1098093690390936A03A0936B03E2
:100B0000B0936C038091690390916A03A0916B0389
:100B1000B0916C030097A105B10591F40E944C05BA
:100B200080910E0190910F01A0911001B0911101DF
:100B30008093690390936A03A0936B03B0936C0353
:100B4000DF91CF91FF91EF91BF91AF919F918F91E5
:100B50007F916F915F914F913F912F910F900092F4
:100B60005B000F9000925F000F901F901895CF933D
:100B7000DF9300D0CDB7DEB789836A838EE090E043
:100B800069810E94D10285E090E060E00E94D1027C
:100B90008EE490E02A81FC012083000000008DE4B7
:100BA00090E0FC0180818823D4F785E090E061E04B
:100BB0000E94D10281E090E00E9485040F900F9086
:100BC000DF91CF910895CF93DF9300D000D000D074
:100BD000CDB7DEB79B838A837D836C834E838A8106
:100BE0009B8199230CF48BC08A819B81843591056C
:100BF0000CF085C08C819D8199230CF480C08C8180
:100C00009D81803391050CF07AC08C819D81877025
:100C10009078992324F40197886F9F6F01968983B8
:100C20008E818823B1F18C819D8199230CF40796E4
:100C300095958795959587959595879524E5289F12
:100C4000A001299F500D11242A813B81240F351FBB
:100C500064E5689FA001699F500D11248A819B81E2
:100C6000840F951F8E5E9E4FFC018081682F8981C5
:100C7000482F50E081E090E002C0880F991F4A950C
:100C8000E2F7862B482FC9018E5E9E4FFC01408300
:100C900036C08C819D8199230CF407969595879594
:100CA000959587959595879524E5289FA001299F7F
:100CB000500D11242A813B81240F351F64E5689F64
:100CC000A001699F500D11248A819B81840F951F7B
:100CD0008E5E9E4FFC018081682F8981482F50E0F5
:100CE00081E090E002C0880F991F4A95E2F7809555
:100CF0008623482FC9018E5E9E4FFC0140832696B5
:100D00000FB6F894DEBF0FBECDBFDF91CF9108952F
:100D10000F93CF93DF93CDB7DEB765970FB6F894F7
:100D2000DEBF0FBECDBF9E878D87788B6F875A8BB6
:100D3000498B3C8B2B8B0D8B2B893C898F8598891C
:100D4000A901481B590BCA019A83898329893A89C9
:100D50008D859E85A901481B590BCA019C838B83F5
:100D600089819A81992364F489819A8191958195E9
:100D700091099A8389838FEF9FEF98878F8304C0AF
:100D800081E090E098878F838B819C81992364F424
:100D90008B819C819195819591099C838B838FEFA9
:100DA0009FEF9E838D8304C081E090E09E838D83BE
:100DB00089819A81880F991F9A8389838B819C816D
:100DC000880F991F9C838B832F8538898D859E85FD
:100DD0004D89B9010E94E3052B813C8189819A816B
:100DE000821793070CF043C08B819C819595879562
:100DF00029813A81A901481B590BCA019A87898721
:100E00002EC089859A85992394F02F8538898F8102
:100E10009885820F931F988B8F8729853A858B81C0
:100E20009C81A901481B590BCA019A8789872D8586
:100E30003E858D819E81820F931F9E878D87298598
:100E40003A8589819A81820F931F9A8789872F8596
:100E500038898D859E854D89B9010E94E3052D85D0
:100E60003E8589899A892817390759F642C08981B0
:100E70009A81959587952B813C81A901481B590B37
:100E8000CA019C878B872EC08B859C85992394F003
:100E90002D853E858D819E81820F931F9E878D8734
:100EA0002B853C8589819A81A901481B590BCA0170
:100EB0009C878B872F8538898F819885820F931F18
:100EC000988B8F872B853C858B819C81820F931F0C
:100ED0009C878B872F8538898D859E854D89B901A3
:100EE0000E94E3052F8538898B899C89281739074B
:100EF00059F665960FB6F894DEBF0FBECDBFDF91F1
:100F0000CF910F910895EF920F93CF93DF93CDB7C9
:100F1000DEB72C970FB6F894DEBF0FBECDBF9C8313
:100F20008B837E836D8358874F833A8729870B870E
:100F3000EC868B85882309F445C02B813C818F8109
:100F40009885821793075CF42B813C818F8198856B
:100F5000A901481B590BCA019A8389830AC02F81B2
:100F600038858B819C81A901481B590BCA019A8342
:100F7000898322C029853A854B815C816D817E8180
:100F80008B819C810C850E9488062B813C818F81FE
:100F900098858217930734F48B819C8101979C83F9
:100FA0008B8305C08B819C8101969C838B83898177
:100FB0009A8101979A83898389819A8118161906E3
:100FC000CCF22CC02D813E814F8158856D817E8170
:100FD0008B819C810C850E94880629853A854F81EA
:100FE000588569857A858B819C810C850E9488064D
:100FF00029853A854B815C816D817E818B819C81C5
:101000000C850E94880629853A854F8158856D8117
:101010007E818F8198850C850E9488062C960FB65C
:10102000F894DEBF0FBECDBFDF91CF910F91EF904F
:1010300008950F931F93CF93DF93CDB7DEB76597D6
:101040000FB6F894DEBF0FBECDBF9E878D87788B1D
:101050006F875A8B498B2B8B1D8B0C8B1A821982B5
:1010600012C121E030E089899A89A901481B590BF6
:10107000CA019C838B831E821D8229893A8980E064
:1010800090E0821B930B880F991F98878F831A8695
:10109000198689899A899C878B872F8538898989C0
:1010A0009A89280F391F8D859E854B89B9010E9429
:1010B000E3052F85388989899A89281B390B8D8505
:1010C0009E854B89B9010E94E3052D853E8589895E
:1010D0009A89820F931F2F8538894B89B9010E9405
:1010E000E3052D853E8589899A89A901481B590BFD
:1010F000CA012F8538894B89B9010E94E305B1C027
:101100008B819C81992394F08B859C8501979C878A
:101110008B878F819885029698878F832B813C815E
:101120008F819885820F931F9C838B8389859A85F5
:1011300001969A8789878D819E8102969E838D83F1
:101140008D819E8101962B813C81820F931F9C8310
:101150008B832F8538898B859C85B901680F791F12
:101160002D853E8589859A85820F931F4B890E9424
:10117000E3052F8538898B859C85B901680F791F18
:101180002D853E8589859A85A901481B590BCA0181
:101190004B890E94E3052F8538898B859C85B90191
:1011A000681B790B2D853E8589859A85820F931F53
:1011B0004B890E94E3052F8538898B859C85B90171
:1011C000681B790B2D853E8589859A85A901481B69
:1011D000590BCA014B890E94E3052F8538898985FF
:1011E0009A85B901680F791F2D853E858B859C8571
:1011F000820F931F4B890E94E3052F8538898985CB
:101200009A85B901680F791F2D853E858B859C8550
:10121000A901481B590BCA014B890E94E3052F8580
:10122000388989859A85B901681B790B2D853E859A
:101230008B859C85820F931F4B890E94E3052F8528
:10124000388989859A85B901681B790B2D853E857A
:101250008B859C85A901481B590BCA014B890E94AB
:10126000E30529853A858B859C85281739070CF479
:1012700047CF89899A8901979A8B898B89819A812D
:1012800001969A83898329813A818C899D892817BF
:1012900039070CF4E6CE65960FB6F894DEBF0FBEA4
:1012A000CDBFDF91CF911F910F910895CF93DF9321
:1012B000CDB7DEB72E970FB6F894DEBF0FBECDBF09
:1012C00089877B876A875D874C872E871A82198278
:1012D0006AC08985992787FD90959C012052310924
:1012E000C901880F991F880F991F820F931F2981A9
:1012F0003A81820F931F825F9E4F9E838D838D81E3
:101300009E81FC0184918F838F8188871C821B8240
:101310003FC08885882F90E00B8002C09595879507
:101320000A94E2F781709927009789F02C853D8512
:101330008B819C81B901680F791F2A853B85898142
:101340009A81820F931F4E850E94E3051CC08E85F3
:10135000882F90E021E0009709F420E081E08227C7
:10136000882F90E0482F41702C853D858B819C8192
:10137000B901680F791F2A853B8589819A81820F7F
:10138000931F0E94E3058B819C8101969C838B8334
:101390008B819C81883091050CF4BBCF89819A8127
:1013A00001969A83898389819A81853091050CF40D
:1013B00090CF2E960FB6F894DEBF0FBECDBFDF9153
:1013C000CF910895CF93DF93CDB7DEB729970FB6AE
:1013D000F894DEBF0FBECDBF9C838B837E836D836D
:1013E00058874F83298750C08B819C819C012F5F38
:1013F0003F4F3C832B83FC0130814F8158858D8189
:101400009E812985BC01832F0E9456098D819E8172
:1014100005969E838D838F8198859A83898319C0D1
:101420008985882F90E021E0009709F420E081E091
:101430008227882F90E0482F417029813A818D8141
:101440009E81B9010E94E30589819A8101969A8360
:1014500089838F8198859C01285F3F4F89819A817C
:1014600082179307ECF28D819E8101969E838D8376
:101470008D819E81803591053CF01E821D828F8179
:101480009885089698878F838B819C81FC01808149
:10149000882309F0A9CF29960FB6F894DEBF0FBEB6
:1014A000CDBFDF91CF910895CF93DF93CDB7DEB756
:1014B00028970FB6F894DEBF0FBECDBF98878F83F5
:1014C0001A8219821BC089819A812F813885820FE7
:1014D000931F9C838B838B819C81FC0184918D83E2
:1014E0008D818E832E8189819A818E5E9E4FFC0133
:1014F000208389819A8101969A83898389819A813F
:10150000883FF1E09F07FCF228960FB6F894DEBF03
:101510000FBECDBFDF91CF910895CF93DF9300D061
:101520001F92CDB7DEB78B831A82198216C08B81CA
:10153000882341F089819A818E5E9E4F2FEFFC01B6
:10154000208306C089819A818E5E9E4FFC011082A5
:1015500089819A8101969A83898389819A81883FBA
:10156000F1E09F0724F30F900F900F90DF91CF9140
:101570000895CF93DF9300D000D0CDB7DEB79A8324
:1015800089837C836B8389818068682F80E00E94D7
:10159000B7058B818064682F80E00E94B7050F90AB
:1015A0000F900F900F90DF91CF910895CF93DF931D
:1015B00000D0CDB7DEB760E070E080E090E00E9440
:1015C000B90A1A8219820FC089819A818E5E9E4F54
:1015D000FC018081682F81E00E94B70589819A8192
:1015E00001969A83898389819A81883FF1E09F07D8
:1015F0005CF30F900F90DF91CF910895CF93DF931D
:101600001F92CDB7DEB7898361E280E00E94B70503
:1016100089818068682F80E00E94B70560E280E0E1
:101620000E94B7050F90DF91CF910895CF93DF937C
:1016300000D0CDB7DEB71A82198213C089819A8192
:101640008E5E9E4FFC018081282F209589819A8192
:101650008E5E9E4FFC01208389819A8101969A8338
:10166000898389819A81883FF1E09F073CF30E943A
:10167000D60A0F900F90DF91CF910895CF93DF930B
:10168000CDB7DEB785E090E061E00E94980182E08E
:1016900090E061E00E9498018EE090E061E00E949D
:1016A000980186E090E061E00E94980188E090E077
:1016B00061E00E94980182E190E061E00E9498015F
:1016C00085E290E025E230E0F90120812061FC0113
:1016D000208382E190E06FEF70E00E94C9108CE4FB
:1016E00090E02CE430E0F90120812165FC012083A9
:1016F0008CE490E02CE430E0F9012081237DFC01B2
:10170000208382E090E060E00E94D10282E090E0DD
:1017100061E00E94D10261E280E00E94B70560EBC7
:1017200080E00E94B70564E080E00E94B70563E1B5
:1017300080E00E94B70560E280E00E94B7056CE09F
:1017400080E00E94B705DF91CF910895CF93DF939A
:10175000CDB7DEB78AE790E02AE730E0F9012081D3
:10176000206EFC012083DF91CF910895CF93DF930A
:10177000CDB7DEB78091790390917A03009721F07D
:101780008130910541F00EC081E090E090937A03A2
:101790008093790307C081E090E090937A0380936F
:1017A000790300008091790390917A03813091054B
:1017B00009F036C08AE790E02AE730E0F90120819D
:1017C0002064FC0120838CE790E0FC01108288E714
:1017D00090E0FC01808191819093700380936F036E
:1017E00081E090E00E9485048AE790E02AE730E0FB
:1017F000F90120812064FC0120838CE790E02CE734
:1018000030E0F90120812160FC01208388E790E02D
:10181000FC018081918190936E0380936D030000A1
:10182000DF91CF910895CF93DF93CDB7DEB780914D
:101830000A0390910B039C01AFE2BAEB0E94A31143
:101840009695879596958795969587959093770326
:10185000809376038091840390918503009721F013
:101860008130910541F00EC081E090E090938503B6
:10187000809384030CC081E090E090938503809373
:10188000840305C0109285031092840300008091A8
:101890008403909185038130910509F0B2C1809154
:1018A000760390917703880F991F9C01220F331FB5
:1018B000220F331F280F391F80916D0390916E0303
:1018C0008217930720F085E080937D03C0C02091AC
:1018D000760330917703C901880F991F880F991FEC
:1018E000880F991F280F391F80916D0390916E0307
:1018F0008217930720F084E080937D03A8C0809135
:101900007603909177039C01220F331F220F331F20
:10191000220F331F80916D0390916E0382179307FE
:1019200020F083E080937D0392C020917603309174
:101930007703C901880F991F880F991F880F991F76
:10194000AC01421B530B9A0180916D0390916E0381
:101950008217930720F082E080937D0378C0209166
:10196000760330917703C901880F991F820F931F67
:10197000880F991F9C0180916D0390916E038217CF
:10198000930720F081E080937D0361C0209176036E
:1019900030917703C901880F991F880F991F280F6D
:1019A000391F80916D0390916E038217930718F091
:1019B00010927D034CC080917603909177039C0137
:1019C000220F331F220F331F80916D0390916E03FE
:1019D0008217930720F08FEF80937D0338C020910A
:1019E000760330917703C901880F991F280F391F9B
:1019F00080916D0390916E038217930720F08EEF14
:101A000080937D0324C080917603909177039C019D
:101A1000220F331F80916D0390916E0382179307FD
:101A200020F08DEF80937D0312C020916D033091E3
:101A30006E0380917603909177032817390720F081
:101A40008CEF80937D0303C08BEF80937D038091A7
:101A5000760390917703880F991F9C01220F331F03
:101A6000220F331F280F391F80916F03909170034D
:101A70008217930720F085E080938703C1C02091EF
:101A8000760330917703C901880F991F880F991F3A
:101A9000880F991F280F391F80916F039091700351
:101AA0008217930720F084E080938703A9C0809178
:101AB0007603909177039C01220F331F220F331F6F
:101AC000220F331F80916F03909170038217930749
:101AD00020F083E08093870393C0209176033091B8
:101AE0007703C901880F991F880F991F880F991FC5
:101AF000AC01421B530B9A0180916F0390917003CC
:101B00008217930720F082E08093870379C02091A9
:101B1000760330917703C901880F991F820F931FB5
:101B2000880F991F9C0180916F0390917003821719
:101B3000930720F081E08093870362C020917603B1
:101B400030917703C901880F991F880F991F280FBB
:101B5000391F80916F03909170038217930718F0DB
:101B6000109287034DC080917603909177039C017A
:101B7000220F331F220F331F80916F039091700348
:101B80008217930720F08FEF8093870339C020914D
:101B9000760330917703C901880F991F280F391FE9
:101BA00080916F03909170038217930720F08EEF5E
:101BB0008093870325C080917603909177039C01E1
:101BC000220F331F80916F03909170038217930748
:101BD00020F08DEF8093870313C020916F03309125
:101BE000700380917603909177032817390720F0CE
:101BF0008CEF8093870304C08BEF8093870300C032
:101C00000000DF91CF910895CF93DF93CDB7DEB77A
:101C10008091800390918103009721F0813091059C
:101C2000F9F019C010927F0310927E031092830383
:101C30001092820310927103109272031092730338
:101C4000109274031092750381E090E090938103E9
:101C50008093800306C0109281031092800301C01C
:101C6000000080918003909181038130910509F0FB
:101C70008AC08091720390917D03890F80937203D3
:101C80008091730390918703890F809373038091F0
:101C90007103882309F473C0809172038695282FFD
:101CA00030E080917403882F90E0280F391F8091D5
:101CB0007E0390917F03820F931F90937F03809305
:101CC0007E03809173038695282F30E08091750301
:101CD000882F90E0280F391F809182039091830311
:101CE000820F931F909383038093820380917E03DE
:101CF00090917F03833391053CF082E390E09093D1
:101D00007F0380937E030EC080917E0390917F03BA
:101D10008E3C2FEF920734F48EEC9FEF90937F036D
:101D200080937E0380918203909183038333910596
:101D30003CF082E390E090938303809382030EC093
:101D400080918203909183038E3C2FEF920734F4AD
:101D50008EEC9FEF909383038093820380917203B4
:101D600081708093740380917303817080937503F5
:101D700010927203109273031092710303C081E0FA
:101D8000809371030000DF91CF910895CF93DF938B
:101D9000CDB7DEB72C970FB6F894DEBF0FBECDBF20
:101DA0008091880390918903009721F081309105FB
:101DB00041F00EC081E090E0909389038093880306
:101DC0000CC081E090E0909389038093880305C064
:101DD00010928903109288030000809188039091EB
:101DE00089038130910509F035C180E00E948D0A98
:101DF000809127039091280321E040E050E060E0CB
:101E000070E00E94E20980917D038823C4F48091F0
:101E10002F039091300321E040E050E064E270E055
:101E20000E94E20980917D03982F80E3891B21E0C5
:101E300040E050E06AE270E00E9456090AC08091DA
:101E40007D03805D21E040E050E064E270E00E94AC
:101E500056098091290390912A0321E048E050E03F
:101E600060E070E00E94E209809187038823C4F457
:101E700080912F039091300321E048E050E064E22C
:101E800070E00E94E20980918703982F80E3891B0C
:101E900021E048E050E06AE270E00E9456090AC082
:101EA00080918703805D21E048E050E064E270E0CB
:101EB0000E94560980912B0390912C0321E040E26F
:101EC00050E060E070E00E94E20980917E03909112
:101ED0007F0399230CF055C080912F03909130031C
:101EE00021E040E250E064E270E00E94E20980916B
:101EF0007E0390917F039C0189E090E0821B930B0D
:101F00008331910550F180917E0390917F039195EB
:101F1000819591092AE030E0B9010E94B211CB010C
:101F2000805D21E040E250E06AE270E00E945609E4
:101F300080917E0390917F039195819591092AE08C
:101F400030E0B9010E94B211805D21E040E250E032
:101F500060E370E00E94560914C080917E03909166
:101F60007F039195819591092AE030E0B9010E94A3
:101F7000B211805D21E040E250E06AE270E00E9430
:101F8000560980912D0390912E0321E040E250E00C
:101F900060E070E00E94E2098091820390918303E7
:101FA00099230CF056C080912F039091300321E0CB
:101FB00040E250E064E270E00E94E2098091820316
:101FC000909183039C0189E090E0821B930B833105
:101FD000910550F1809182039091830391958195B1
:101FE00091092AE030E0B9010E94B211CB01805D75
:101FF00021E040E250E06AE270E00E9456098091E0
:102000008203909183039195819591092AE030E0B4
:10201000B9010E94B211805D21E040E250E060E32E
:1020200070E00E94560915C080918203909183034D
:102030009195819591092AE030E0B9010E94B21191
:10204000805D21E040E250E06AE270E00E945609C3
:1020500000C000002C960FB6F894DEBF0FBECDBFB7
:10206000DF91CF910895CF93DF93CDB7DEB781E2B3
:1020700090E0FC01108282E290E02FEFFC012083CF
:1020800084E290E02FEFFC01208385E290E0FC01E8
:1020900010828AE290E02FEFFC0120838BE290E037
:1020A000FC0110820E94A60B0E943E0B64EF71E0BF
:1020B00080E090E00E94DE040E940B0510927A03FB
:1020C0001092790310928503109284031092810379
:1020D0001092800310928903109288030E94B60B1D
:1020E0000E94130C0E94040E0E94C60E00008091F4
:1020F00068038823E1F310926803F0CFCF93DF9356
:102100001F92CDB7DEB789838981809331030F9009
:10211000DF91CF910895CF93DF931F92CDB7DEB7B4
:1021200089838981883118F08981885189838CE776
:1021300090E020913103222F30E00024369527953E
:102140000794369527950794322F202D322F298119
:102150002770232BFC0120838AE790E02AE730E0F8
:10216000F90120812064FC01208300008AE790E0CF
:10217000FC018081882F90E0807499270097B1F747
:1021800088E790E0FC01808191810F90DF91CF91F1
:102190000895CF93DF9300D000D000D0CDB7DEB745
:1021A0008C837E836D8361E08C810E9498018D8198
:1021B0009E81009729F460E08C810E94D102BAC010
:1021C0008D819E818F3F910529F461E08C810E9471
:1021D000D102B0C08C81882F90E086509F4F9A83A7
:1021E000898389819A81FC0184918B838B81882FDB
:1021F00090E0AA2797FDA095BA2F41E050E029E092
:1022000030E0841B950B2817390708F485C0805BE4
:102210009F4FFC010C94C61184E490E024E430E06C
:10222000F90120812068FC01208387E490E02D8162
:10223000FC0120837FC084E490E024E430E0F901D5
:1022400020812062FC01208388E490E02D81FC0144
:10225000208370C080E890E020E830E0F901208120
:102260002068FC01208388E890E02D813E81FC01FC
:10227000318320835FC080E890E020E830E0F901FE
:1022800020812062FC0120838AE890E02D813E813C
:10229000FC01318320834EC080EB90E020EB30E0E6
:1022A000F90120812068FC01208383EB90E02D81DF
:1022B000FC0120833FC080EB90E020EB30E0F9018F
:1022C00020812062FC01208384EB90E02D81FC01C1
:1022D000208330C080E990E020E930E0F9012081DE
:1022E0002068FC01208388E990E02D813E81FC017B
:1022F000318320831FC080E990E020E930E0F901BC
:1023000020812062FC0120838AE990E02D813E81BA
:10231000FC01318320830EC08D819E818038910520
:102320002CF460E08C810E94D10204C061E08C81B9
:102330000E94D10226960FB6F894DEBF0FBECDBF25
:10234000DF91CF910895A29FB001B39FC001A39FD9
:10235000700D811D1124911DB29F700D811D1124DE
:10236000911D089597FB072E16F4009407D077FD72
:1023700009D00E94CF1107FC05D03EF490958195BD
:102380009F4F0895709561957F4F0895EE0FFF1F41
:102390000024001C0BBE0790F691E02D0994AA1BA7
:1023A000BB1B51E107C0AA1FBB1FA617B70710F040
:1023B000A61BB70B881F991F5A95A9F78095909572
:0A23C000BC01CD010895F894FFCF91
:1023CA000000000200000000B50400000000010047
:1023DA0000000000000000000000000000000000F3
:1023EA0000000000000000000000000000000000E3
:1023FA000000000000E0F0F8FCFCFEFEFEFE1E0EEF
:10240A0002000000000000000000000000000000C0
:10241A0000000000000000000000000000000000B2
:10242A0000000000000000000000000000000000A2
:10243A000000000000000000000000000000000092
:10244A00000000000000000000030F1F3F7FFFFF95
:10245A00FFFFFFFEFCF8F8F0F8FEFEFCF8E00000D3
:10246A000000000000000000000000000000000062
:10247A000000000000000000000000000000000052
:10248A000000000000000000000000000000000042
:10249A0000000000F8FCFEFEFFFFF3E0E0C0C0C051
:1024AA00E0E0F1FFFFFFFFFFFFFFFFFFFFFFFFFF7E
:1024BA00FFFF3E00000000000000000000000000D6
:1024CA000000000000000000000000000000000002
:1024DA0000000000000000000000000000000000F2
:1024EA000000000000000000FFFFFFFFFFFFFFFFEA
:1024FA00FFFFFFFFFFFFFFFFFFFFFFFFFFFFFFFFE2
:10250A00FF7F3F1F070100000000000000000000DD
:10251A0000000000000000000000000000000000B1
:10252A0000000000000000000000000000000000A1
:10253A00000000000000000000000000FFFFFFFF95
:10254A00FFFFFF7F3F1F0F0F0F0707070707070749
:10255A000303010100000000000000000000000069
:10256A000000000000000000000000000000000061
:10257A000000000000000000000000000000000051
:10258A000000000000000000000000000000000041
:10259A003F1F0F07030100000000000000000000B9
:1025AA000000000000000000000000000000000021
:1025BA000000000000000000000000000000000011
:1025CA0000000000000000000000EC031E0076532B
:1025DA0050443A00685350443A0076504F533A00F8
:1025EA0068504F533A002D0E0314031A0320032692
:1025FA0003010A0B0C0D12130E0F101112131415EE
:10260A000A0B0C0D12130E0F1011121314150500DC
:10261A0002000E000600080012000A0B0C0D12132D
:08262A000E0F1011121314151C
:00000001FF
