:100000000C9446000C9465000C9465000C946500FB
:100010000C9465000C9465000C9465000C946500CC
:100020000C9465000C9465000C9465000C946500BC
:100030000C9465000C94FB010C9465000C94650015
:100040000C9465000C9465000C9465000C9465009C
:100050000C9465000C9465000C9465000C9465008C
:100060000C9465000C9465000C9465000C9465007C
:100070000C9465000C9465000C9465000C9465006C
:100080000C9465000C9465000C94650011241FBE4F
:10009000CFEFD0E4DEBFCDBF11E0A0E0B1E0E2E100
:1000A000FBE000E00BBF02C007900D92AA32B1073F
:1000B000D9F711E0AAE2B1E001C01D92A534B10761
:1000C000E1F70E9437050C9487050C940000CF934C
:1000D000DF93CDB7DEB781E00E948C00DF91CF9136
:1000E0000895CF93DF93CDB7DEB784E690E00E940A
:1000F0002A0188E30E948C0086E00E948C008FE039
:100100000E948C0081E00E948C008AE090E00E94B6
:100110002A01DF91CF910895CF93DF931F92CDB73E
:10012000DEB789838BE290E02BE230E0F901208199
:100130002F7BFC01208388E290E02981FC01208351
:100140008BE290E02BE230E0F90120812068FC0195
:10015000208300008BE290E02BE230E0F901208167
:100160002F77FC01208382E090E00E942A010F900B
:10017000DF91CF910895CF93DF931F92CDB7DEB774
:1001800089838BE290E02BE230E0F901208120644A
:10019000FC01208388E290E02981FC0120838BE22E
:1001A00090E02BE230E0F90120812068FC012083FF
:1001B00000008BE290E02BE230E0F90120812F7704
:1001C000FC01208381E090E00E942A010F90DF91E2
:1001D000CF910895CF93DF9300D000D0CDB7DEB795
:1001E0008A837C836B838A81898311C0898191E0B2
:1001F000980F99830E9414018B819C819C012F5F31
:100200003F4F3C832B83FC0180810E94BB008B818C
:100210009C81FC018081882349F70F900F900F90FB
:100220000F90DF91CF910895CF93DF931F92CDB7B9
:10023000DEB789838981813128F4898181580E94C0
:100240008C0004C0898181550E948C000F90DF9141
:10025000CF910895CF93DF9300D000D000D0CDB7D9
:10026000DEB79E838D831A82198214C01C821B8282
:1002700006C000008B819C8101969C838B838B81BF
:100280009C81873023E09207A4F389819A810196AB
:100290009A83898329813A818D819E812817390724
:1002A0002CF326960FB6F894DEBF0FBECDBFDF91BC
:1002B000CF910895CF93DF9300D01F92CDB7DEB7D3
:1002C00089837B836A8389818A3031F48A819B8127
:1002D000BC018DE00E945A0180EC90E0FC0180811D
:1002E000882F90E0807299270097B1F386EC90E018
:1002F0002981FC01208380E090E00F900F900F9007
:10030000DF91CF910895CF93DF9300D000D0CDB788
:10031000DEB769837A838B839C8389819A81AB81E1
:10032000BC8180930E0190930F01A0931001B093B4
:10033000110180910E0190910F01A0911001B091D7
:10034000110180932B0190932C01A0932D01B09368
:100350002E010F900F900F900F90DF91CF91089585
:10036000CF93DF93CDB7DEB781E890E02BE0FC01BF
:10037000208388E890E02DE730E0FC013183208382
:100380008FE690E022E0FC01208384E890E0FC010D
:100390001182108280910E0190910F01A0911001A5
:1003A000B091110180932B0190932C01A0932D010A
:1003B000B0932E018FE590E02FE530E0F901208128
:1003C0002068FC012083DF91CF910895CF93DF93C4
:1003D000CDB7DEB781E890E0FC011082DF91CF91CC
:1003E0000895CF93DF93CDB7DEB781E080932A01E4
:1003F000DF91CF9108951F920F9200905F000F92AE
:10040000112400905B000F922F933F934F935F93C3
:100410006F937F938F939F93AF93BF93EF93FF93CC
:10042000CF93DF93CDB7DEB780912B0190912C0154
:10043000A0912D01B0912E010197A109B1098093DE
:100440002B0190932C01A0932D01B0932E0180914C
:100450002B0190912C01A0912D01B0912E010097BC
:10046000A105B10591F40E94F10180910E019091D6
:100470000F01A0911001B091110180932B01909375
:100480002C01A0932D01B0932E01DF91CF91FF910C
:10049000EF91BF91AF919F918F917F916F915F91FC
:1004A0004F913F912F910F9000925B000F9000921F
:1004B0005F000F901F901895CF93DF93CDB7DEB7F5
:1004C0008AE790E02AE730E0F9012081206EFC0104
:1004D0002083DF91CF910895CF93DF93CDB7DEB71F
:1004E0008091360190913701009721F0813091057C
:1004F00041F00EC081E090E0909337018093360187
:1005000007C081E090E090933701809336010000AE
:1005100080913601909137018130910509F036C004
:100520008AE790E02AE730E0F90120812064FC01AD
:1005300020838CE790E0FC01108288E790E0FC01CA
:1005400080819181909332018093310181E090E02C
:100550000E942A018AE790E02AE730E0F901208131
:100560002064FC0120838CE790E02CE730E0F90167
:1005700020812160FC01208388E790E0FC018081DC
:1005800091819093300180932F010000DF91CF91F2
:100590000895CF93DF93CDB7DEB78091120190918C
:1005A00013019C01AFE2BAEB0E94780596958795FE
:1005B000969587959695879590933401809333010E
:1005C00080913F0190914001009721F08130910589
:1005D00041F00EC081E090E09093400180933F0194
:1005E0000CC081E090E09093400180933F0105C0F2
:1005F0001092400110923F01000080913F019091C4
:1006000040018130910509F0B2C180913301909190
:100610003401880F991F9C01220F331F220F331FB3
:10062000280F391F80912F01909130018217930775
:1006300020F085E080933A01C0C0209133013091D1
:100640003401C901880F991F880F991F880F991FBE
:10065000280F391F80912F01909130018217930745
:1006600020F084E080933A01A8C0809133019091FA
:1006700034019C01220F331F220F331F220F331F1F
:1006800080912F01909130018217930720F083E031
:1006900080933A0192C02091330130913401C90115
:1006A000880F991F880F991F880F991FAC01421B53
:1006B000530B9A0180912F0190913001821793077B
:1006C00020F082E080933A0178C02091330130918C
:1006D0003401C901880F991F820F931F880F991F3A
:1006E0009C0180912F01909130018217930720F097
:1006F00081E080933A0161C020913301309134014F
:10070000C901880F991F880F991F280F391F8091E1
:100710002F01909130018217930718F010923A013F
:100720004CC080913301909134019C01220F331F02
:10073000220F331F80912F01909130018217930770
:1007400020F08FEF80933A0138C02091330130912F
:100750003401C901880F991F280F391F80912F017B
:10076000909130018217930720F08EEF80933A0129
:1007700024C080913301909134019C01220F331FDA
:1007800080912F01909130018217930720F08DEF17
:1007900080933A0112C020912F0130913001809155
:1007A0003301909134012817390720F08CEF8093A2
:1007B0003A0103C08BEF80933A018091330190910D
:1007C0003401880F991F9C01220F331F220F331F02
:1007D000280F391F809131019091320182179307C0
:1007E00020F085E080934201C1C020913301309117
:1007F0003401C901880F991F880F991F880F991F0D
:10080000280F391F8091310190913201821793078F
:1008100020F084E080934201A9C08091330190913F
:1008200034019C01220F331F220F331F220F331F6D
:1008300080913101909132018217930720F083E07B
:100840008093420193C02091330130913401C9015A
:10085000880F991F880F991F880F991FAC01421BA1
:10086000530B9A01809131019091320182179307C5
:1008700020F082E08093420179C0209133013091D1
:100880003401C901880F991F820F931F880F991F88
:100890009C0180913101909132018217930720F0E1
:1008A00081E08093420162C0209133013091340194
:1008B000C901880F991F880F991F280F391F809130
:1008C0003101909132018217930718F01092420182
:1008D0004DC080913301909134019C01220F331F50
:1008E000220F331F809131019091320182179307BB
:1008F00020F08FEF8093420139C020913301309175
:100900003401C901880F991F280F391F80913101C7
:10091000909132018217930720F08EEF809342016D
:1009200025C080913301909134019C01220F331F27
:1009300080913101909132018217930720F08DEF61
:100940008093420113C02091310130913201809196
:100950003301909134012817390720F08CEF8093F0
:10096000420104C08BEF8093420100C00000DF9180
:10097000CF910895CF93DF93CDB7DEB78091430138
:1009800090914401009721F08130910541F00EC013
:1009900081E090E090934401809343010CC081E09A
:1009A00090E0909344018093430105C0109244016C
:1009B00010924301000080914301909144018130E5
:1009C000910509F051C00E94670080911601909135
:1009D0001701BC0181E00E94EA0080913A0188235E
:1009E0009CF480911A0190911B01BC0186E00E9449
:1009F000EA0087E00E94140180913A01982F80E379
:100A0000891B0E94BB0008C086E00E9414018091EF
:100A10003A01805D0E94BB008091180190911901FC
:100A2000BC0181E10E94EA008091420188239CF48C
:100A300080911A0190911B01BC0186E10E94EA009D
:100A400087E10E94140180914201982F80E3891B65
:100A50000E94BB0008C086E10E94140180914201FF
:100A6000805D0E94BB000000DF91CF910895CF937D
:100A7000DF93CDB7DEB781E290E0FC01108282E225
:100A800090E02FEFFC01208387E290E02FEFFC0144
:100A9000208388E290E0FC0110828AE290E02FEF50
:100AA000FC0120838BE290E0FC0110820E945C023A
:100AB0000E94710068EE73E080E090E00E94830184
:100AC0000E94B00110923701109236011092440139
:100AD000109243010E946C020E94C9020E94BA0453
:100AE000000080912A018823E1F310922A01F2CFBD
:100AF000A29FB001B39FC001A39F700D811D11245F
:100B0000911DB29F700D811D1124911D0895F894BF
:020B1000FFCF15
:100B120000000002000000005A0100000000010075
:100B22000000EC031E001C012201280176535044F0
:0A0B32003A00685350443A002D00C9
:00000001FF
