:100000000C9446000C9465000C9465000C946500FB
:100010000C9465000C9465000C9465000C946500CC
:100020000C9465000C9465000C9465000C946500BC
:100030000C9465000C94FD010C9465000C94650013
:100040000C9465000C9465000C9465000C9465009C
:100050000C9465000C9465000C9465000C9465008C
:100060000C9465000C9465000C9465000C9465007C
:100070000C9465000C9465000C9465000C9465006C
:100080000C9465000C9465000C94650011241FBE4F
:10009000CFEFD0E4DEBFCDBF11E0A0E0B1E0EEE7EE
:1000A000F8E000E00BBF02C007900D92A632B10746
:1000B000D9F711E0A6E2B1E001C01D92AF33B1075C
:1000C000E1F70E94F1030C943D040C940000CF93DF
:1000D000DF93CDB7DEB781E00E948C00DF91CF9136
:1000E0000895CF93DF93CDB7DEB784E690E00E940A
:1000F0002C0188E30E948C0086E00E948C008FE037
:100100000E948C0081E00E948C008AE090E00E94B6
:100110002C01DF91CF910895CF93DF931F92CDB73C
:10012000DEB789838BE290E02BE230E0F901208199
:100130002F7BFC01208388E290E02981FC01208351
:100140008BE290E02BE230E0F90120812068FC0195
:10015000208300008BE290E02BE230E0F901208167
:100160002F77FC01208382E090E00E942C010F9009
:10017000DF91CF910895CF93DF931F92CDB7DEB774
:1001800089838BE290E02BE230E0F901208120644A
:10019000FC01208388E290E02981FC0120838BE22E
:1001A00090E02BE230E0F90120812068FC012083FF
:1001B00000008BE290E02BE230E0F90120812F7704
:1001C000FC01208381E090E00E942C010F90DF91E0
:1001D000CF910895CF93DF9300D000D0CDB7DEB795
:1001E0008A837C836B830E9467008A81898311C024
:1001F000898191E0980F99830E9416018B819C81DF
:100200009C012F5F3F4F3C832B83FC0180810E9428
:10021000BB008B819C81FC018081882349F70F9072
:100220000F900F900F90DF91CF910895CF93DF93B0
:100230001F92CDB7DEB789838981813128F4898106
:1002400081580E948C0004C0898181550E948C00D5
:100250000F90DF91CF910895CF93DF9300D000D01E
:1002600000D0CDB7DEB79E838D831A82198214C069
:100270001C821B8206C000008B819C8101969C839E
:100280008B838B819C81873023E09207A4F3898143
:100290009A8101969A83898329813A818D819E81F1
:1002A000281739072CF326960FB6F894DEBF0FBE39
:1002B000CDBFDF91CF910895CF93DF9300D01F92F0
:1002C000CDB7DEB789837B836A8389818A3031F435
:1002D0008A819B81BC018DE00E945C0180EC90E0F2
:1002E000FC018081882F90E0807299270097B1F3FC
:1002F00086EC90E02981FC01208380E090E00F9063
:100300000F900F90DF91CF910895CF93DF9300D09E
:1003100000D0CDB7DEB769837A838B839C838981D4
:100320009A81AB81BC8180930E0190930F01A093C1
:100330001001B093110180910E0190910F01A091D5
:100340001001B09111018093270190932801A0938F
:100350002901B0932A010F900F900F900F90DF9119
:10036000CF910895CF93DF93CDB7DEB781E890E0CA
:100370002BE0FC01208388E890E02DE730E0FC01D1
:10038000318320838FE690E022E0FC01208384E823
:1003900090E0FC011182108280910E0190910F017A
:1003A000A0911001B0911101809327019093280131
:1003B000A0932901B0932A018FE590E02FE530E06A
:1003C000F90120812068FC012083DF91CF910895FD
:1003D000CF93DF93CDB7DEB781E890E0FC011082C8
:1003E000DF91CF910895CF93DF93CDB7DEB781E052
:1003F00080932601DF91CF9108951F920F92009074
:100400005F000F92112400905B000F922F933F9397
:100410004F935F936F937F938F939F93AF93BF930C
:10042000EF93FF93CF93DF93CDB7DEB78091270192
:1004300090912801A0912901B0912A010197A10969
:10044000B1098093270190932801A0932901B093CB
:100450002A018091270190912801A0912901B09152
:100460002A010097A105B10591F40E94F301809142
:100470000E0190910F01A0911001B0911101809394
:10048000270190932801A0932901B0932A01DF91BD
:10049000CF91FF91EF91BF91AF919F918F917F91FC
:1004A0006F915F914F913F912F910F9000925B0060
:1004B0000F9000925F000F901F901895CF93DF93DD
:1004C000CDB7DEB78AE790E02AE730E0F901208176
:1004D000206EFC012083DF91CF910895CF93DF93AD
:1004E000CDB7DEB780912C0190912D01009721F0BE
:1004F0008130910541F00EC081E090E090932D0194
:1005000080932C0107C081E090E090932D018093AF
:100510002C01000080912C0190912D0181309105DA
:1005200009F01CC08CE790E0FC01108288E790E0A5
:10053000FC018081918190933C0180933B018CE789
:1005400090E021E0FC01208388E790E0FC018081BD
:10055000918190933401809333010000DF91CF911A
:100560000895CF93DF93CDB7DEB780913701909197
:100570003801009721F08130910541F00EC081E0F3
:1005800090E090933801809337010CC081E090E0B7
:10059000909338018093370105C010923801109272
:1005A0003701000080913701909138018130910529
:1005B00009F00DC080913B0190913C018093300186
:1005C000809133019091340180933A010000DF91D2
:1005D000CF910895CF93DF93CDB7DEB780913D01E2
:1005E00090913E01009721F08130910541F00EC0BD
:1005F00081E090E090933E0180933D010CC081E04A
:1006000090E090933E0180933D0105C010923E0121
:1006100010923D01000080913D0190913E0181309A
:10062000910509F0DBC00E94670081E00E9416017D
:100630008091120190911301BC0181E00E94EA00B7
:100640008091300188239CF48091160190911701CC
:10065000BC0187E00E94EA0088E00E9416018091B8
:100660003001982F80E3891B0E94BB004AC087E0BD
:1006700080932B013FC040913B0150913C019A0176
:10068000ADECBCEC0E942E049695879596958795C7
:1006900096958795880F991F9C01220F331F220F73
:1006A000331F820F931F9A01281B390BC9018093B6
:1006B000390180913B0190913C019C01ADECBCEC77
:1006C0000E942E0496958795969587959695879581
:1006D00090933C0180933B0180912B010E94160175
:1006E00080913901805D0E94BB0080912B018F5F5A
:1006F00080932B0180913B0190913C01009709F080
:10070000BACF81E10E9416018091140190911501E8
:10071000BC0181E00E94EA0080913A0188239CF4A8
:100720008091160190911701BC0187E10E94EA00B7
:1007300088E10E94160180913A01982F80E3891B7D
:100740000E94BB004AC087E180932B013FC04091CB
:100750003301509134019A01ADECBCEC0E942E049F
:10076000969587959695879596958795880F991F65
:100770009C01220F331F220F331F820F931F9A01F8
:10078000281B390BC9018093390180913301909165
:1007900034019C01ADECBCEC0E942E04969587952B
:1007A000969587959695879590933401809333011C
:1007B00080912B010E94160180913901805D0E9479
:1007C000BB0080912B018F5F80932B0180913301BF
:1007D00090913401009709F4BACF0000DF91CF91D6
:1007E0000895CF93DF93CDB7DEB781E290E0FC01AF
:1007F000108282E290E02FEFFC01208387E290E0FC
:100800002FEFFC01208388E290E0FC0110828AE255
:1008100090E02FEFFC0120838BE290E0FC0110823E
:100820000E945E0268EE73E080E090E00E94850125
:100830000E94B20110922D0110922C0110923E01E3
:1008400010923D010E946E020E94EA020000809117
:1008500026018823E1F310922601F4CFA29FB00174
:10086000B39FC001A39F700D811D1124911DB29FE4
:0E087000700D811D1124911D0895F894FFCF85
:10087E0000000002000000005C010000000001000A
:10088E00000018011E012401765350443A2068538B
:06089E0050443A202D0039
:00000001FF
